{
  "contractName": "Consultations",
  "abi": [
    {
      "inputs": [
        {
          "internalType": "uint256",
          "name": "_id",
          "type": "uint256"
        },
        {
          "internalType": "string",
          "name": "_date",
          "type": "string"
        },
        {
          "internalType": "string",
          "name": "_doctorName",
          "type": "string"
        },
        {
          "internalType": "string",
          "name": "_diagnosis",
          "type": "string"
        },
        {
          "internalType": "string",
          "name": "_prescription",
          "type": "string"
        }
      ],
      "name": "addConsultation",
      "outputs": [],
      "stateMutability": "nonpayable",
      "type": "function"
    },
    {
      "inputs": [],
      "name": "getConsultations",
      "outputs": [
        {
          "components": [
            {
              "internalType": "uint256",
              "name": "id",
              "type": "uint256"
            },
            {
              "internalType": "string",
              "name": "date",
              "type": "string"
            },
            {
              "internalType": "string",
              "name": "doctorName",
              "type": "string"
            },
            {
              "internalType": "string",
              "name": "diagnosis",
              "type": "string"
            },
            {
              "internalType": "string",
              "name": "prescription",
              "type": "string"
            }
          ],
          "internalType": "struct Consultations.Consultation[]",
          "name": "",
          "type": "tuple[]"
        }
      ],
      "stateMutability": "view",
      "type": "function"
    }
  ],
  "bytecode": "0x608060405234801561001057600080fd5b50610bed806100206000396000f3fe608060405234801561001057600080fd5b50600436106100365760003560e01c80631b01d1621461003b57806374e82e2614610059575b600080fd5b610043610075565b6040516100509190610657565b60405180910390f35b610073600480360381019061006e91906107ee565b610362565b005b60606000803373ffffffffffffffffffffffffffffffffffffffff1673ffffffffffffffffffffffffffffffffffffffff168152602001908152602001600020805480602002602001604051908101604052809291908181526020016000905b8282101561035957838290600052602060002090600502016040518060a00160405290816000820154815260200160018201805461011290610908565b80601f016020809104026020016040519081016040528092919081815260200182805461013e90610908565b801561018b5780601f106101605761010080835404028352916020019161018b565b820191906000526020600020905b81548152906001019060200180831161016e57829003601f168201915b505050505081526020016002820180546101a490610908565b80601f01602080910402602001604051908101604052809291908181526020018280546101d090610908565b801561021d5780601f106101f25761010080835404028352916020019161021d565b820191906000526020600020905b81548152906001019060200180831161020057829003601f168201915b5050505050815260200160038201805461023690610908565b80601f016020809104026020016040519081016040528092919081815260200182805461026290610908565b80156102af5780601f10610284576101008083540402835291602001916102af565b820191906000526020600020905b81548152906001019060200180831161029257829003601f168201915b505050505081526020016004820180546102c890610908565b80601f01602080910402602001604051908101604052809291908181526020018280546102f490610908565b80156103415780601f1061031657610100808354040283529160200191610341565b820191906000526020600020905b81548152906001019060200180831161032457829003601f168201915b505050505081525050815260200190600101906100d5565b50505050905090565b60006040518060a001604052808781526020018681526020018581526020018481526020018381525090506000803373ffffffffffffffffffffffffffffffffffffffff1673ffffffffffffffffffffffffffffffffffffffff1681526020019081526020016000208190806001815401808255809150506001900390600052602060002090600502016000909190919091506000820151816000015560208201518160010190816104149190610ae5565b50604082015181600201908161042a9190610ae5565b5060608201518160030190816104409190610ae5565b5060808201518160040190816104569190610ae5565b505050505050505050565b600081519050919050565b600082825260208201905092915050565b6000819050602082019050919050565b6000819050919050565b6104a08161048d565b82525050565b600081519050919050565b600082825260208201905092915050565b60005b838110156104e05780820151818401526020810190506104c5565b60008484015250505050565b6000601f19601f8301169050919050565b6000610508826104a6565b61051281856104b1565b93506105228185602086016104c2565b61052b816104ec565b840191505092915050565b600060a08301600083015161054e6000860182610497565b506020830151848203602086015261056682826104fd565b9150506040830151848203604086015261058082826104fd565b9150506060830151848203606086015261059a82826104fd565b915050608083015184820360808601526105b482826104fd565b9150508091505092915050565b60006105cd8383610536565b905092915050565b6000602082019050919050565b60006105ed82610461565b6105f7818561046c565b9350836020820285016106098561047d565b8060005b85811015610645578484038952815161062685826105c1565b9450610631836105d5565b925060208a0199505060018101905061060d565b50829750879550505050505092915050565b6000602082019050818103600083015261067181846105e2565b905092915050565b6000604051905090565b600080fd5b600080fd5b6106968161048d565b81146106a157600080fd5b50565b6000813590506106b38161068d565b92915050565b600080fd5b600080fd5b7f4e487b7100000000000000000000000000000000000000000000000000000000600052604160045260246000fd5b6106fb826104ec565b810181811067ffffffffffffffff8211171561071a576107196106c3565b5b80604052505050565b600061072d610679565b905061073982826106f2565b919050565b600067ffffffffffffffff821115610759576107586106c3565b5b610762826104ec565b9050602081019050919050565b82818337600083830152505050565b600061079161078c8461073e565b610723565b9050828152602081018484840111156107ad576107ac6106be565b5b6107b884828561076f565b509392505050565b600082601f8301126107d5576107d46106b9565b5b81356107e584826020860161077e565b91505092915050565b600080600080600060a0868803121561080a57610809610683565b5b6000610818888289016106a4565b955050602086013567ffffffffffffffff81111561083957610838610688565b5b610845888289016107c0565b945050604086013567ffffffffffffffff81111561086657610865610688565b5b610872888289016107c0565b935050606086013567ffffffffffffffff81111561089357610892610688565b5b61089f888289016107c0565b925050608086013567ffffffffffffffff8111156108c0576108bf610688565b5b6108cc888289016107c0565b9150509295509295909350565b7f4e487b7100000000000000000000000000000000000000000000000000000000600052602260045260246000fd5b6000600282049050600182168061092057607f821691505b602082108103610933576109326108d9565b5b50919050565b60008190508160005260206000209050919050565b60006020601f8301049050919050565b600082821b905092915050565b60006008830261099b7fffffffffffffffffffffffffffffffffffffffffffffffffffffffffffffffff8261095e565b6109a5868361095e565b95508019841693508086168417925050509392505050565b6000819050919050565b60006109e26109dd6109d88461048d565b6109bd565b61048d565b9050919050565b6000819050919050565b6109fc836109c7565b610a10610a08826109e9565b84845461096b565b825550505050565b600090565b610a25610a18565b610a308184846109f3565b505050565b5b81811015610a5457610a49600082610a1d565b600181019050610a36565b5050565b601f821115610a9957610a6a81610939565b610a738461094e565b81016020851015610a82578190505b610a96610a8e8561094e565b830182610a35565b50505b505050565b600082821c905092915050565b6000610abc60001984600802610a9e565b1980831691505092915050565b6000610ad58383610aab565b9150826002028217905092915050565b610aee826104a6565b67ffffffffffffffff811115610b0757610b066106c3565b5b610b118254610908565b610b1c828285610a58565b600060209050601f831160018114610b4f5760008415610b3d578287015190505b610b478582610ac9565b865550610baf565b601f198416610b5d86610939565b60005b82811015610b8557848901518255600182019150602085019450602081019050610b60565b86831015610ba25784890151610b9e601f891682610aab565b8355505b6001600288020188555050505b50505050505056fea264697066735822122053146433e7d248737f2d08ec3350065d1913f12b6990a5be9efd36f38d0b2be264736f6c63430008130033",
  "immutableReferences": {},
  "source": "// SPDX-License-Identifier: MIT\r\n\r\npragma solidity ^0.8.0;\r\n\r\ncontract Consultations {\r\n\r\n    struct Consultation {\r\n        uint id;\r\n        string date;\r\n        string doctorName;\r\n        string diagnosis;\r\n        string prescription;\r\n    }\r\n\r\n    mapping(address => Consultation[]) private consultations;\r\n\r\n    function addConsultation(uint _id, string memory _date, string memory _doctorName, string memory _diagnosis, string memory _prescription) public {\r\n        Consultation memory newConsultation = Consultation(_id, _date, _doctorName, _diagnosis, _prescription);\r\n        consultations[msg.sender].push(newConsultation);\r\n    }\r\n\r\n    function getConsultations() public view returns (Consultation[] memory) {\r\n        return consultations[msg.sender];\r\n    }\r\n}\r\n",
  "sourcePath": "D:\\MyWork\\hackwork\\mytest\\contracts\\consultations.sol",
  "compiler": {
    "name": "solc",
    "version": "0.8.19+commit.7dd6d404.Emscripten.clang"
  },
  "schemaVersion": "3.4.13",
  "updatedAt": "2023-03-18T16:27:57.132Z",
  "devdoc": {
    "kind": "dev",
    "methods": {},
    "version": 1
  },
  "userdoc": {
    "kind": "user",
    "methods": {},
    "version": 1
  }
}