{
  "contractName": "InsuranceData",
  "abi": [
    {
      "inputs": [
        {
          "internalType": "uint256",
          "name": "_id",
          "type": "uint256"
        },
        {
          "internalType": "string",
          "name": "_provider",
          "type": "string"
        },
        {
          "internalType": "uint256",
          "name": "_policyNumber",
          "type": "uint256"
        },
        {
          "internalType": "string",
          "name": "_expirationDate",
          "type": "string"
        },
        {
          "internalType": "uint256",
          "name": "_coverageLimit",
          "type": "uint256"
        }
      ],
      "name": "addInsuranceData",
      "outputs": [],
      "stateMutability": "nonpayable",
      "type": "function"
    },
    {
      "inputs": [],
      "name": "getInsuranceData",
      "outputs": [
        {
          "components": [
            {
              "internalType": "uint256",
              "name": "id",
              "type": "uint256"
            },
            {
              "internalType": "string",
              "name": "provider",
              "type": "string"
            },
            {
              "internalType": "uint256",
              "name": "policyNumber",
              "type": "uint256"
            },
            {
              "internalType": "string",
              "name": "expirationDate",
              "type": "string"
            },
            {
              "internalType": "uint256",
              "name": "coverageLimit",
              "type": "uint256"
            }
          ],
          "internalType": "struct InsuranceData.Insurance",
          "name": "",
          "type": "tuple"
        }
      ],
      "stateMutability": "view",
      "type": "function"
    }
  ],
  "bytecode": "0x608060405234801561001057600080fd5b5061097f806100206000396000f3fe608060405234801561001057600080fd5b50600436106100365760003560e01c806392ed93d01461003b578063f047a5aa14610059575b600080fd5b610043610075565b6040516100509190610421565b60405180910390f35b610073600480360381019061006e91906105b8565b61020d565b005b61007d6102cc565b6000803373ffffffffffffffffffffffffffffffffffffffff1673ffffffffffffffffffffffffffffffffffffffff1681526020019081526020016000206040518060a0016040529081600082015481526020016001820180546100e09061069a565b80601f016020809104026020016040519081016040528092919081815260200182805461010c9061069a565b80156101595780601f1061012e57610100808354040283529160200191610159565b820191906000526020600020905b81548152906001019060200180831161013c57829003601f168201915b505050505081526020016002820154815260200160038201805461017c9061069a565b80601f01602080910402602001604051908101604052809291908181526020018280546101a89061069a565b80156101f55780601f106101ca576101008083540402835291602001916101f5565b820191906000526020600020905b8154815290600101906020018083116101d857829003601f168201915b50505050508152602001600482015481525050905090565b60006040518060a00160405280878152602001868152602001858152602001848152602001838152509050806000803373ffffffffffffffffffffffffffffffffffffffff1673ffffffffffffffffffffffffffffffffffffffff1681526020019081526020016000206000820151816000015560208201518160010190816102969190610877565b506040820151816002015560608201518160030190816102b69190610877565b5060808201518160040155905050505050505050565b6040518060a0016040528060008152602001606081526020016000815260200160608152602001600081525090565b6000819050919050565b61030e816102fb565b82525050565b600081519050919050565b600082825260208201905092915050565b60005b8381101561034e578082015181840152602081019050610333565b60008484015250505050565b6000601f19601f8301169050919050565b600061037682610314565b610380818561031f565b9350610390818560208601610330565b6103998161035a565b840191505092915050565b600060a0830160008301516103bc6000860182610305565b50602083015184820360208601526103d4828261036b565b91505060408301516103e96040860182610305565b5060608301518482036060860152610401828261036b565b91505060808301516104166080860182610305565b508091505092915050565b6000602082019050818103600083015261043b81846103a4565b905092915050565b6000604051905090565b600080fd5b600080fd5b610460816102fb565b811461046b57600080fd5b50565b60008135905061047d81610457565b92915050565b600080fd5b600080fd5b7f4e487b7100000000000000000000000000000000000000000000000000000000600052604160045260246000fd5b6104c58261035a565b810181811067ffffffffffffffff821117156104e4576104e361048d565b5b80604052505050565b60006104f7610443565b905061050382826104bc565b919050565b600067ffffffffffffffff8211156105235761052261048d565b5b61052c8261035a565b9050602081019050919050565b82818337600083830152505050565b600061055b61055684610508565b6104ed565b90508281526020810184848401111561057757610576610488565b5b610582848285610539565b509392505050565b600082601f83011261059f5761059e610483565b5b81356105af848260208601610548565b91505092915050565b600080600080600060a086880312156105d4576105d361044d565b5b60006105e28882890161046e565b955050602086013567ffffffffffffffff81111561060357610602610452565b5b61060f8882890161058a565b94505060406106208882890161046e565b935050606086013567ffffffffffffffff81111561064157610640610452565b5b61064d8882890161058a565b925050608061065e8882890161046e565b9150509295509295909350565b7f4e487b7100000000000000000000000000000000000000000000000000000000600052602260045260246000fd5b600060028204905060018216806106b257607f821691505b6020821081036106c5576106c461066b565b5b50919050565b60008190508160005260206000209050919050565b60006020601f8301049050919050565b600082821b905092915050565b60006008830261072d7fffffffffffffffffffffffffffffffffffffffffffffffffffffffffffffffff826106f0565b61073786836106f0565b95508019841693508086168417925050509392505050565b6000819050919050565b600061077461076f61076a846102fb565b61074f565b6102fb565b9050919050565b6000819050919050565b61078e83610759565b6107a261079a8261077b565b8484546106fd565b825550505050565b600090565b6107b76107aa565b6107c2818484610785565b505050565b5b818110156107e6576107db6000826107af565b6001810190506107c8565b5050565b601f82111561082b576107fc816106cb565b610805846106e0565b81016020851015610814578190505b610828610820856106e0565b8301826107c7565b50505b505050565b600082821c905092915050565b600061084e60001984600802610830565b1980831691505092915050565b6000610867838361083d565b9150826002028217905092915050565b61088082610314565b67ffffffffffffffff8111156108995761089861048d565b5b6108a3825461069a565b6108ae8282856107ea565b600060209050601f8311600181146108e157600084156108cf578287015190505b6108d9858261085b565b865550610941565b601f1984166108ef866106cb565b60005b82811015610917578489015182556001820191506020850194506020810190506108f2565b868310156109345784890151610930601f89168261083d565b8355505b6001600288020188555050505b50505050505056fea2646970667358221220fb0367933d487f57f7e5fdca848402fc1fc7e3d290198e52638c1ddf8622c95964736f6c63430008130033",
  "immutableReferences": {},
  "source": "// SPDX-License-Identifier: MIT\r\n\r\npragma solidity ^0.8.0;\r\n\r\ncontract InsuranceData {\r\n\r\n    struct Insurance {\r\n        uint id;\r\n        string provider;\r\n        uint policyNumber;\r\n        string expirationDate;\r\n        uint coverageLimit;\r\n    }\r\n\r\n    mapping(address => Insurance) private insuranceData;\r\n\r\n    function addInsuranceData(uint _id, string memory _provider, uint _policyNumber, string memory _expirationDate, uint _coverageLimit) public {\r\n        Insurance memory newInsurance = Insurance(_id, _provider, _policyNumber, _expirationDate, _coverageLimit);\r\n        insuranceData[msg.sender] = newInsurance;\r\n    }\r\n\r\n    function getInsuranceData() public view returns (Insurance memory) {\r\n        return insuranceData[msg.sender];\r\n    }\r\n}\r\n",
  "sourcePath": "D:\\MyWork\\hackwork\\mytest\\contracts\\insuranceData.sol",
  "compiler": {
    "name": "solc",
    "version": "0.8.19+commit.7dd6d404.Emscripten.clang"
  },
  "schemaVersion": "3.4.13",
  "updatedAt": "2023-03-18T16:27:57.149Z",
  "devdoc": {
    "kind": "dev",
    "methods": {},
    "version": 1
  },
  "userdoc": {
    "kind": "user",
    "methods": {},
    "version": 1
  }
}