{
  "contractName": "MedicalHistory",
  "abi": [
    {
      "inputs": [
        {
          "internalType": "uint256",
          "name": "_id",
          "type": "uint256"
        },
        {
          "internalType": "string",
          "name": "_diagnosis",
          "type": "string"
        },
        {
          "internalType": "string",
          "name": "_treatment",
          "type": "string"
        },
        {
          "internalType": "string",
          "name": "_date",
          "type": "string"
        }
      ],
      "name": "addMedicalRecord",
      "outputs": [],
      "stateMutability": "nonpayable",
      "type": "function"
    },
    {
      "inputs": [],
      "name": "getMedicalHistory",
      "outputs": [
        {
          "components": [
            {
              "internalType": "uint256",
              "name": "id",
              "type": "uint256"
            },
            {
              "internalType": "string",
              "name": "diagnosis",
              "type": "string"
            },
            {
              "internalType": "string",
              "name": "treatment",
              "type": "string"
            },
            {
              "internalType": "string",
              "name": "date",
              "type": "string"
            }
          ],
          "internalType": "struct MedicalHistory.MedicalRecord[]",
          "name": "",
          "type": "tuple[]"
        }
      ],
      "stateMutability": "view",
      "type": "function"
    }
  ],
  "bytecode": "0x608060405234801561001057600080fd5b50610af3806100206000396000f3fe608060405234801561001057600080fd5b50600436106100355760003560e01c8062ee98061461003a578063c9f8ee3b14610056575b600080fd5b610054600480360381019061004f9190610541565b610074565b005b61005e610156565b60405161006b91906107bd565b60405180910390f35b600060405180608001604052808681526020018581526020018481526020018381525090506000803373ffffffffffffffffffffffffffffffffffffffff1673ffffffffffffffffffffffffffffffffffffffff16815260200190815260200160002081908060018154018082558091505060019003906000526020600020906004020160009091909190915060008201518160000155602082015181600101908161012091906109eb565b50604082015181600201908161013691906109eb565b50606082015181600301908161014c91906109eb565b5050505050505050565b60606000803373ffffffffffffffffffffffffffffffffffffffff1673ffffffffffffffffffffffffffffffffffffffff168152602001908152602001600020805480602002602001604051908101604052809291908181526020016000905b828210156103a85783829060005260206000209060040201604051806080016040529081600082015481526020016001820180546101f39061080e565b80601f016020809104026020016040519081016040528092919081815260200182805461021f9061080e565b801561026c5780601f106102415761010080835404028352916020019161026c565b820191906000526020600020905b81548152906001019060200180831161024f57829003601f168201915b505050505081526020016002820180546102859061080e565b80601f01602080910402602001604051908101604052809291908181526020018280546102b19061080e565b80156102fe5780601f106102d3576101008083540402835291602001916102fe565b820191906000526020600020905b8154815290600101906020018083116102e157829003601f168201915b505050505081526020016003820180546103179061080e565b80601f01602080910402602001604051908101604052809291908181526020018280546103439061080e565b80156103905780601f1061036557610100808354040283529160200191610390565b820191906000526020600020905b81548152906001019060200180831161037357829003601f168201915b505050505081525050815260200190600101906101b6565b50505050905090565b6000604051905090565b600080fd5b600080fd5b6000819050919050565b6103d8816103c5565b81146103e357600080fd5b50565b6000813590506103f5816103cf565b92915050565b600080fd5b600080fd5b6000601f19601f8301169050919050565b7f4e487b7100000000000000000000000000000000000000000000000000000000600052604160045260246000fd5b61044e82610405565b810181811067ffffffffffffffff8211171561046d5761046c610416565b5b80604052505050565b60006104806103b1565b905061048c8282610445565b919050565b600067ffffffffffffffff8211156104ac576104ab610416565b5b6104b582610405565b9050602081019050919050565b82818337600083830152505050565b60006104e46104df84610491565b610476565b905082815260208101848484011115610500576104ff610400565b5b61050b8482856104c2565b509392505050565b600082601f830112610528576105276103fb565b5b81356105388482602086016104d1565b91505092915050565b6000806000806080858703121561055b5761055a6103bb565b5b6000610569878288016103e6565b945050602085013567ffffffffffffffff81111561058a576105896103c0565b5b61059687828801610513565b935050604085013567ffffffffffffffff8111156105b7576105b66103c0565b5b6105c387828801610513565b925050606085013567ffffffffffffffff8111156105e4576105e36103c0565b5b6105f087828801610513565b91505092959194509250565b600081519050919050565b600082825260208201905092915050565b6000819050602082019050919050565b610631816103c5565b82525050565b600081519050919050565b600082825260208201905092915050565b60005b83811015610671578082015181840152602081019050610656565b60008484015250505050565b600061068882610637565b6106928185610642565b93506106a2818560208601610653565b6106ab81610405565b840191505092915050565b60006080830160008301516106ce6000860182610628565b50602083015184820360208601526106e6828261067d565b91505060408301518482036040860152610700828261067d565b9150506060830151848203606086015261071a828261067d565b9150508091505092915050565b600061073383836106b6565b905092915050565b6000602082019050919050565b6000610753826105fc565b61075d8185610607565b93508360208202850161076f85610618565b8060005b858110156107ab578484038952815161078c8582610727565b94506107978361073b565b925060208a01995050600181019050610773565b50829750879550505050505092915050565b600060208201905081810360008301526107d78184610748565b905092915050565b7f4e487b7100000000000000000000000000000000000000000000000000000000600052602260045260246000fd5b6000600282049050600182168061082657607f821691505b602082108103610839576108386107df565b5b50919050565b60008190508160005260206000209050919050565b60006020601f8301049050919050565b600082821b905092915050565b6000600883026108a17fffffffffffffffffffffffffffffffffffffffffffffffffffffffffffffffff82610864565b6108ab8683610864565b95508019841693508086168417925050509392505050565b6000819050919050565b60006108e86108e36108de846103c5565b6108c3565b6103c5565b9050919050565b6000819050919050565b610902836108cd565b61091661090e826108ef565b848454610871565b825550505050565b600090565b61092b61091e565b6109368184846108f9565b505050565b5b8181101561095a5761094f600082610923565b60018101905061093c565b5050565b601f82111561099f576109708161083f565b61097984610854565b81016020851015610988578190505b61099c61099485610854565b83018261093b565b50505b505050565b600082821c905092915050565b60006109c2600019846008026109a4565b1980831691505092915050565b60006109db83836109b1565b9150826002028217905092915050565b6109f482610637565b67ffffffffffffffff811115610a0d57610a0c610416565b5b610a17825461080e565b610a2282828561095e565b600060209050601f831160018114610a555760008415610a43578287015190505b610a4d85826109cf565b865550610ab5565b601f198416610a638661083f565b60005b82811015610a8b57848901518255600182019150602085019450602081019050610a66565b86831015610aa85784890151610aa4601f8916826109b1565b8355505b6001600288020188555050505b50505050505056fea2646970667358221220958007b38a2d6758b38c1c85e2ce80fd179c6f201e29ac4ef193cf51b3e78dc264736f6c63430008130033",
  "immutableReferences": {},
  "source": "pragma solidity ^0.8.0;\r\n\r\ncontract MedicalHistory {\r\n\r\n    struct MedicalRecord {\r\n        uint id;\r\n        string diagnosis;\r\n        string treatment;\r\n        string date;\r\n    }\r\n\r\n    mapping(address => MedicalRecord[]) private medicalHistories;\r\n\r\n    function addMedicalRecord(uint _id, string memory _diagnosis, string memory _treatment, string memory _date) public {\r\n        MedicalRecord memory newRecord = MedicalRecord(_id, _diagnosis, _treatment, _date);\r\n        medicalHistories[msg.sender].push(newRecord);\r\n    }\r\n\r\n    function getMedicalHistory() public view returns (MedicalRecord[] memory) {\r\n        return medicalHistories[msg.sender];\r\n    }\r\n}\r\n",
  "sourcePath": "D:\\MyWork\\hackwork\\mytest\\contracts\\medicalHistory.sol",
  "compiler": {
    "name": "solc",
    "version": "0.8.19+commit.7dd6d404.Emscripten.clang"
  },
  "schemaVersion": "3.4.13",
  "updatedAt": "2023-03-18T16:27:57.115Z",
  "devdoc": {
    "kind": "dev",
    "methods": {},
    "version": 1
  },
  "userdoc": {
    "kind": "user",
    "methods": {},
    "version": 1
  }
}