{
  "contractName": "PatientHealthData",
  "abi": [
    {
      "inputs": [
        {
          "internalType": "uint256",
          "name": "",
          "type": "uint256"
        }
      ],
      "name": "patients",
      "outputs": [
        {
          "internalType": "uint256",
          "name": "id",
          "type": "uint256"
        },
        {
          "internalType": "string",
          "name": "name",
          "type": "string"
        },
        {
          "internalType": "string",
          "name": "dob",
          "type": "string"
        },
        {
          "internalType": "string",
          "name": "gender",
          "type": "string"
        },
        {
          "internalType": "string",
          "name": "addresse",
          "type": "string"
        },
        {
          "internalType": "string",
          "name": "phoneNumber",
          "type": "string"
        },
        {
          "internalType": "string",
          "name": "email",
          "type": "string"
        }
      ],
      "stateMutability": "view",
      "type": "function"
    },
    {
      "inputs": [],
      "name": "patientsCount",
      "outputs": [
        {
          "internalType": "uint256",
          "name": "",
          "type": "uint256"
        }
      ],
      "stateMutability": "view",
      "type": "function"
    },
    {
      "inputs": [
        {
          "internalType": "string",
          "name": "_name",
          "type": "string"
        },
        {
          "internalType": "string",
          "name": "_dob",
          "type": "string"
        },
        {
          "internalType": "string",
          "name": "_gender",
          "type": "string"
        },
        {
          "internalType": "string",
          "name": "_address",
          "type": "string"
        },
        {
          "internalType": "string",
          "name": "_phoneNumber",
          "type": "string"
        },
        {
          "internalType": "string",
          "name": "_email",
          "type": "string"
        }
      ],
      "name": "addPatient",
      "outputs": [],
      "stateMutability": "nonpayable",
      "type": "function"
    },
    {
      "inputs": [
        {
          "internalType": "uint256",
          "name": "_patientId",
          "type": "uint256"
        },
        {
          "internalType": "uint256",
          "name": "_medicalHistoryId",
          "type": "uint256"
        }
      ],
      "name": "addMedicalHistory",
      "outputs": [],
      "stateMutability": "nonpayable",
      "type": "function"
    },
    {
      "inputs": [
        {
          "internalType": "uint256",
          "name": "_patientId",
          "type": "uint256"
        },
        {
          "internalType": "uint256",
          "name": "_clinicalDataId",
          "type": "uint256"
        }
      ],
      "name": "addClinicalData",
      "outputs": [],
      "stateMutability": "nonpayable",
      "type": "function"
    },
    {
      "inputs": [
        {
          "internalType": "uint256",
          "name": "_patientId",
          "type": "uint256"
        },
        {
          "internalType": "uint256",
          "name": "_treatmentId",
          "type": "uint256"
        }
      ],
      "name": "addTreatment",
      "outputs": [],
      "stateMutability": "nonpayable",
      "type": "function"
    },
    {
      "inputs": [
        {
          "internalType": "uint256",
          "name": "_patientId",
          "type": "uint256"
        },
        {
          "internalType": "uint256",
          "name": "_consultationId",
          "type": "uint256"
        }
      ],
      "name": "addConsultation",
      "outputs": [],
      "stateMutability": "nonpayable",
      "type": "function"
    },
    {
      "inputs": [
        {
          "internalType": "uint256",
          "name": "_patientId",
          "type": "uint256"
        },
        {
          "internalType": "uint256",
          "name": "_insuranceDataId",
          "type": "uint256"
        }
      ],
      "name": "addInsuranceData",
      "outputs": [],
      "stateMutability": "nonpayable",
      "type": "function"
    }
  ],
  "bytecode": "0x608060405234801561001057600080fd5b506111c5806100206000396000f3fe608060405234801561001057600080fd5b50600436106100885760003560e01c806398c410fc1161005b57806398c410fc14610117578063a4f3cc2314610133578063b49573231461014f578063b6b1289d1461016b57610088565b80632f1b221b1461008d57806354291c65146100a957806381f97f10146100c557806393119a83146100e1575b600080fd5b6100a760048036038101906100a29190610a10565b610189565b005b6100c360048036038101906100be9190610a10565b6101c9565b005b6100df60048036038101906100da9190610a10565b610209565b005b6100fb60048036038101906100f69190610a50565b610249565b60405161010e9796959493929190610b1c565b60405180910390f35b610131600480360381019061012c9190610a10565b6105bb565b005b61014d60048036038101906101489190610cea565b6105fb565b005b61016960048036038101906101649190610a10565b610916565b005b610173610956565b6040516101809190610e1f565b60405180910390f35b600080838152602001908152602001600020600b018190806001815401808255809150506001900390600052602060002001600090919091909150555050565b6000808381526020019081526020016000206009018190806001815401808255809150506001900390600052602060002001600090919091909150555050565b600080838152602001908152602001600020600a018190806001815401808255809150506001900390600052602060002001600090919091909150555050565b600060205280600052604060002060009150905080600001549080600101805461027290610e69565b80601f016020809104026020016040519081016040528092919081815260200182805461029e90610e69565b80156102eb5780601f106102c0576101008083540402835291602001916102eb565b820191906000526020600020905b8154815290600101906020018083116102ce57829003601f168201915b50505050509080600201805461030090610e69565b80601f016020809104026020016040519081016040528092919081815260200182805461032c90610e69565b80156103795780601f1061034e57610100808354040283529160200191610379565b820191906000526020600020905b81548152906001019060200180831161035c57829003601f168201915b50505050509080600301805461038e90610e69565b80601f01602080910402602001604051908101604052809291908181526020018280546103ba90610e69565b80156104075780601f106103dc57610100808354040283529160200191610407565b820191906000526020600020905b8154815290600101906020018083116103ea57829003601f168201915b50505050509080600401805461041c90610e69565b80601f016020809104026020016040519081016040528092919081815260200182805461044890610e69565b80156104955780601f1061046a57610100808354040283529160200191610495565b820191906000526020600020905b81548152906001019060200180831161047857829003601f168201915b5050505050908060050180546104aa90610e69565b80601f01602080910402602001604051908101604052809291908181526020018280546104d690610e69565b80156105235780601f106104f857610100808354040283529160200191610523565b820191906000526020600020905b81548152906001019060200180831161050657829003601f168201915b50505050509080600601805461053890610e69565b80601f016020809104026020016040519081016040528092919081815260200182805461056490610e69565b80156105b15780601f10610586576101008083540402835291602001916105b1565b820191906000526020600020905b81548152906001019060200180831161059457829003601f168201915b5050505050905087565b6000808381526020019081526020016000206008018190806001815401808255809150506001900390600052602060002001600090919091909150555050565b6001600081548092919061060e90610ec9565b91905055506040518061018001604052806001548152602001878152602001868152602001858152602001848152602001838152602001828152602001600067ffffffffffffffff81111561066657610665610bbf565b5b6040519080825280602002602001820160405280156106945781602001602082028036833780820191505090505b508152602001600067ffffffffffffffff8111156106b5576106b4610bbf565b5b6040519080825280602002602001820160405280156106e35781602001602082028036833780820191505090505b508152602001600067ffffffffffffffff81111561070457610703610bbf565b5b6040519080825280602002602001820160405280156107325781602001602082028036833780820191505090505b508152602001600067ffffffffffffffff81111561075357610752610bbf565b5b6040519080825280602002602001820160405280156107815781602001602082028036833780820191505090505b508152602001600067ffffffffffffffff8111156107a2576107a1610bbf565b5b6040519080825280602002602001820160405280156107d05781602001602082028036833780820191505090505b50815250600080600154815260200190815260200160002060008201518160000155602082015181600101908161080791906110bd565b50604082015181600201908161081d91906110bd565b50606082015181600301908161083391906110bd565b50608082015181600401908161084991906110bd565b5060a082015181600501908161085f91906110bd565b5060c082015181600601908161087591906110bd565b5060e082015181600701908051906020019061089292919061095c565b506101008201518160080190805190602001906108b092919061095c565b506101208201518160090190805190602001906108ce92919061095c565b5061014082015181600a0190805190602001906108ec92919061095c565b5061016082015181600b01908051906020019061090a92919061095c565b50905050505050505050565b6000808381526020019081526020016000206007018190806001815401808255809150506001900390600052602060002001600090919091909150555050565b60015481565b828054828255906000526020600020908101928215610998579160200282015b8281111561099757825182559160200191906001019061097c565b5b5090506109a591906109a9565b5090565b5b808211156109c25760008160009055506001016109aa565b5090565b6000604051905090565b600080fd5b600080fd5b6000819050919050565b6109ed816109da565b81146109f857600080fd5b50565b600081359050610a0a816109e4565b92915050565b60008060408385031215610a2757610a266109d0565b5b6000610a35858286016109fb565b9250506020610a46858286016109fb565b9150509250929050565b600060208284031215610a6657610a656109d0565b5b6000610a74848285016109fb565b91505092915050565b610a86816109da565b82525050565b600081519050919050565b600082825260208201905092915050565b60005b83811015610ac6578082015181840152602081019050610aab565b60008484015250505050565b6000601f19601f8301169050919050565b6000610aee82610a8c565b610af88185610a97565b9350610b08818560208601610aa8565b610b1181610ad2565b840191505092915050565b600060e082019050610b31600083018a610a7d565b8181036020830152610b438189610ae3565b90508181036040830152610b578188610ae3565b90508181036060830152610b6b8187610ae3565b90508181036080830152610b7f8186610ae3565b905081810360a0830152610b938185610ae3565b905081810360c0830152610ba78184610ae3565b905098975050505050505050565b600080fd5b600080fd5b7f4e487b7100000000000000000000000000000000000000000000000000000000600052604160045260246000fd5b610bf782610ad2565b810181811067ffffffffffffffff82111715610c1657610c15610bbf565b5b80604052505050565b6000610c296109c6565b9050610c358282610bee565b919050565b600067ffffffffffffffff821115610c5557610c54610bbf565b5b610c5e82610ad2565b9050602081019050919050565b82818337600083830152505050565b6000610c8d610c8884610c3a565b610c1f565b905082815260208101848484011115610ca957610ca8610bba565b5b610cb4848285610c6b565b509392505050565b600082601f830112610cd157610cd0610bb5565b5b8135610ce1848260208601610c7a565b91505092915050565b60008060008060008060c08789031215610d0757610d066109d0565b5b600087013567ffffffffffffffff811115610d2557610d246109d5565b5b610d3189828a01610cbc565b965050602087013567ffffffffffffffff811115610d5257610d516109d5565b5b610d5e89828a01610cbc565b955050604087013567ffffffffffffffff811115610d7f57610d7e6109d5565b5b610d8b89828a01610cbc565b945050606087013567ffffffffffffffff811115610dac57610dab6109d5565b5b610db889828a01610cbc565b935050608087013567ffffffffffffffff811115610dd957610dd86109d5565b5b610de589828a01610cbc565b92505060a087013567ffffffffffffffff811115610e0657610e056109d5565b5b610e1289828a01610cbc565b9150509295509295509295565b6000602082019050610e346000830184610a7d565b92915050565b7f4e487b7100000000000000000000000000000000000000000000000000000000600052602260045260246000fd5b60006002820490506001821680610e8157607f821691505b602082108103610e9457610e93610e3a565b5b50919050565b7f4e487b7100000000000000000000000000000000000000000000000000000000600052601160045260246000fd5b6000610ed4826109da565b91507fffffffffffffffffffffffffffffffffffffffffffffffffffffffffffffffff8203610f0657610f05610e9a565b5b600182019050919050565b60008190508160005260206000209050919050565b60006020601f8301049050919050565b600082821b905092915050565b600060088302610f737fffffffffffffffffffffffffffffffffffffffffffffffffffffffffffffffff82610f36565b610f7d8683610f36565b95508019841693508086168417925050509392505050565b6000819050919050565b6000610fba610fb5610fb0846109da565b610f95565b6109da565b9050919050565b6000819050919050565b610fd483610f9f565b610fe8610fe082610fc1565b848454610f43565b825550505050565b600090565b610ffd610ff0565b611008818484610fcb565b505050565b5b8181101561102c57611021600082610ff5565b60018101905061100e565b5050565b601f8211156110715761104281610f11565b61104b84610f26565b8101602085101561105a578190505b61106e61106685610f26565b83018261100d565b50505b505050565b600082821c905092915050565b600061109460001984600802611076565b1980831691505092915050565b60006110ad8383611083565b9150826002028217905092915050565b6110c682610a8c565b67ffffffffffffffff8111156110df576110de610bbf565b5b6110e98254610e69565b6110f4828285611030565b600060209050601f8311600181146111275760008415611115578287015190505b61111f85826110a1565b865550611187565b601f19841661113586610f11565b60005b8281101561115d57848901518255600182019150602085019450602081019050611138565b8683101561117a5784890151611176601f891682611083565b8355505b6001600288020188555050505b50505050505056fea26469706673582212204faa8095330ff669e57fe3264e05a93073322410442aac6228e88e444c234ed864736f6c63430008130033",
  "immutableReferences": {},
  "source": "pragma solidity ^0.8.0;\r\n\r\ncontract PatientHealthData {\r\n    // Dclaration des variables\r\n    mapping(uint => Patient) public patients;\r\n    uint public patientsCount;\r\n\r\n    // Dfinition de la structure Patient\r\n    struct Patient {\r\n        uint id;\r\n        string name;\r\n        string dob;\r\n        string gender;\r\n        string addresse;\r\n        string phoneNumber;\r\n        string email;\r\n        uint[] medicalHistory;\r\n        uint[] clinicalData;\r\n        uint[] treatments;\r\n        uint[] consultations;\r\n        uint[] insuranceData;\r\n        }\r\n\r\n// Fonction pour ajouter un nouveau patient\r\nfunction addPatient(string memory _name, string memory _dob, string memory _gender, string memory _address, string memory _phoneNumber, string memory _email) public {\r\npatientsCount ++;\r\npatients[patientsCount] = Patient(patientsCount, _name, _dob, _gender, _address, _phoneNumber, _email, new uint[](0), new uint[](0), new uint[](0), new uint[](0), new uint[](0));\r\n}\r\n\r\n// Fonction pour ajouter de nouvelles donnes mdicales  un patient existant\r\nfunction addMedicalHistory(uint _patientId, uint _medicalHistoryId) public {\r\npatients[_patientId].medicalHistory.push(_medicalHistoryId);\r\n}\r\n\r\n// Fonction pour ajouter de nouvelles donnes cliniques  un patient existant\r\nfunction addClinicalData(uint _patientId, uint _clinicalDataId) public {\r\npatients[_patientId].clinicalData.push(_clinicalDataId);\r\n}\r\n\r\n// Fonction pour ajouter de nouveaux traitements  un patient existant\r\nfunction addTreatment(uint _patientId, uint _treatmentId) public {\r\npatients[_patientId].treatments.push(_treatmentId);\r\n}\r\n\r\n// Fonction pour ajouter de nouvelles consultations  un patient existant\r\nfunction addConsultation(uint _patientId, uint _consultationId) public {\r\npatients[_patientId].consultations.push(_consultationId);\r\n}\r\n\r\n// Fonction pour ajouter de nouvelles donnes d'assurance-maladie  un patient existant\r\nfunction addInsuranceData(uint _patientId, uint _insuranceDataId) public {\r\npatients[_patientId].insuranceData.push(_insuranceDataId);\r\n}\r\n}\r\n",
  "sourcePath": "D:\\MyWork\\hackwork\\mytest\\contracts\\PatientHealthData.sol",
  "compiler": {
    "name": "solc",
    "version": "0.8.19+commit.7dd6d404.Emscripten.clang"
  },
  "schemaVersion": "3.4.13",
  "updatedAt": "2023-03-18T16:27:56.808Z",
  "devdoc": {
    "kind": "dev",
    "methods": {},
    "version": 1
  },
  "userdoc": {
    "kind": "user",
    "methods": {},
    "version": 1
  }
}