{
  "contractName": "Treatments",
  "abi": [
    {
      "inputs": [
        {
          "internalType": "uint256",
          "name": "_id",
          "type": "uint256"
        },
        {
          "internalType": "string",
          "name": "_name",
          "type": "string"
        },
        {
          "internalType": "string",
          "name": "_description",
          "type": "string"
        },
        {
          "internalType": "string",
          "name": "_startDate",
          "type": "string"
        },
        {
          "internalType": "string",
          "name": "_endDate",
          "type": "string"
        }
      ],
      "name": "addTreatment",
      "outputs": [],
      "stateMutability": "nonpayable",
      "type": "function"
    },
    {
      "inputs": [],
      "name": "getTreatments",
      "outputs": [
        {
          "components": [
            {
              "internalType": "uint256",
              "name": "id",
              "type": "uint256"
            },
            {
              "internalType": "string",
              "name": "name",
              "type": "string"
            },
            {
              "internalType": "string",
              "name": "description",
              "type": "string"
            },
            {
              "internalType": "string",
              "name": "startDate",
              "type": "string"
            },
            {
              "internalType": "string",
              "name": "endDate",
              "type": "string"
            }
          ],
          "internalType": "struct Treatments.Treatment[]",
          "name": "",
          "type": "tuple[]"
        }
      ],
      "stateMutability": "view",
      "type": "function"
    }
  ],
  "bytecode": "0x608060405234801561001057600080fd5b50610bed806100206000396000f3fe608060405234801561001057600080fd5b50600436106100365760003560e01c8063715a152a1461003b5780638bb2541914610057575b600080fd5b610055600480360381019061005091906105f1565b610075565b005b61005f610174565b60405161006c91906108b7565b60405180910390f35b60006040518060a001604052808781526020018681526020018581526020018481526020018381525090506000803373ffffffffffffffffffffffffffffffffffffffff1673ffffffffffffffffffffffffffffffffffffffff1681526020019081526020016000208190806001815401808255809150506001900390600052602060002090600502016000909190919091506000820151816000015560208201518160010190816101279190610ae5565b50604082015181600201908161013d9190610ae5565b5060608201518160030190816101539190610ae5565b5060808201518160040190816101699190610ae5565b505050505050505050565b60606000803373ffffffffffffffffffffffffffffffffffffffff1673ffffffffffffffffffffffffffffffffffffffff168152602001908152602001600020805480602002602001604051908101604052809291908181526020016000905b8282101561045857838290600052602060002090600502016040518060a00160405290816000820154815260200160018201805461021190610908565b80601f016020809104026020016040519081016040528092919081815260200182805461023d90610908565b801561028a5780601f1061025f5761010080835404028352916020019161028a565b820191906000526020600020905b81548152906001019060200180831161026d57829003601f168201915b505050505081526020016002820180546102a390610908565b80601f01602080910402602001604051908101604052809291908181526020018280546102cf90610908565b801561031c5780601f106102f15761010080835404028352916020019161031c565b820191906000526020600020905b8154815290600101906020018083116102ff57829003601f168201915b5050505050815260200160038201805461033590610908565b80601f016020809104026020016040519081016040528092919081815260200182805461036190610908565b80156103ae5780601f10610383576101008083540402835291602001916103ae565b820191906000526020600020905b81548152906001019060200180831161039157829003601f168201915b505050505081526020016004820180546103c790610908565b80601f01602080910402602001604051908101604052809291908181526020018280546103f390610908565b80156104405780601f1061041557610100808354040283529160200191610440565b820191906000526020600020905b81548152906001019060200180831161042357829003601f168201915b505050505081525050815260200190600101906101d4565b50505050905090565b6000604051905090565b600080fd5b600080fd5b6000819050919050565b61048881610475565b811461049357600080fd5b50565b6000813590506104a58161047f565b92915050565b600080fd5b600080fd5b6000601f19601f8301169050919050565b7f4e487b7100000000000000000000000000000000000000000000000000000000600052604160045260246000fd5b6104fe826104b5565b810181811067ffffffffffffffff8211171561051d5761051c6104c6565b5b80604052505050565b6000610530610461565b905061053c82826104f5565b919050565b600067ffffffffffffffff82111561055c5761055b6104c6565b5b610565826104b5565b9050602081019050919050565b82818337600083830152505050565b600061059461058f84610541565b610526565b9050828152602081018484840111156105b0576105af6104b0565b5b6105bb848285610572565b509392505050565b600082601f8301126105d8576105d76104ab565b5b81356105e8848260208601610581565b91505092915050565b600080600080600060a0868803121561060d5761060c61046b565b5b600061061b88828901610496565b955050602086013567ffffffffffffffff81111561063c5761063b610470565b5b610648888289016105c3565b945050604086013567ffffffffffffffff81111561066957610668610470565b5b610675888289016105c3565b935050606086013567ffffffffffffffff81111561069657610695610470565b5b6106a2888289016105c3565b925050608086013567ffffffffffffffff8111156106c3576106c2610470565b5b6106cf888289016105c3565b9150509295509295909350565b600081519050919050565b600082825260208201905092915050565b6000819050602082019050919050565b61071181610475565b82525050565b600081519050919050565b600082825260208201905092915050565b60005b83811015610751578082015181840152602081019050610736565b60008484015250505050565b600061076882610717565b6107728185610722565b9350610782818560208601610733565b61078b816104b5565b840191505092915050565b600060a0830160008301516107ae6000860182610708565b50602083015184820360208601526107c6828261075d565b915050604083015184820360408601526107e0828261075d565b915050606083015184820360608601526107fa828261075d565b91505060808301518482036080860152610814828261075d565b9150508091505092915050565b600061082d8383610796565b905092915050565b6000602082019050919050565b600061084d826106dc565b61085781856106e7565b935083602082028501610869856106f8565b8060005b858110156108a557848403895281516108868582610821565b945061089183610835565b925060208a0199505060018101905061086d565b50829750879550505050505092915050565b600060208201905081810360008301526108d18184610842565b905092915050565b7f4e487b7100000000000000000000000000000000000000000000000000000000600052602260045260246000fd5b6000600282049050600182168061092057607f821691505b602082108103610933576109326108d9565b5b50919050565b60008190508160005260206000209050919050565b60006020601f8301049050919050565b600082821b905092915050565b60006008830261099b7fffffffffffffffffffffffffffffffffffffffffffffffffffffffffffffffff8261095e565b6109a5868361095e565b95508019841693508086168417925050509392505050565b6000819050919050565b60006109e26109dd6109d884610475565b6109bd565b610475565b9050919050565b6000819050919050565b6109fc836109c7565b610a10610a08826109e9565b84845461096b565b825550505050565b600090565b610a25610a18565b610a308184846109f3565b505050565b5b81811015610a5457610a49600082610a1d565b600181019050610a36565b5050565b601f821115610a9957610a6a81610939565b610a738461094e565b81016020851015610a82578190505b610a96610a8e8561094e565b830182610a35565b50505b505050565b600082821c905092915050565b6000610abc60001984600802610a9e565b1980831691505092915050565b6000610ad58383610aab565b9150826002028217905092915050565b610aee82610717565b67ffffffffffffffff811115610b0757610b066104c6565b5b610b118254610908565b610b1c828285610a58565b600060209050601f831160018114610b4f5760008415610b3d578287015190505b610b478582610ac9565b865550610baf565b601f198416610b5d86610939565b60005b82811015610b8557848901518255600182019150602085019450602081019050610b60565b86831015610ba25784890151610b9e601f891682610aab565b8355505b6001600288020188555050505b50505050505056fea2646970667358221220a9fe549f81f1a07530e28685e742a81d89b992fcafe0bdc16efd58f00402eeae64736f6c63430008130033",
  "immutableReferences": {},
  "source": "// SPDX-License-Identifier: MIT\r\n\r\npragma solidity ^0.8.0;\r\n\r\ncontract Treatments {\r\n\r\n    struct Treatment {\r\n        uint id;\r\n        string name;\r\n        string description;\r\n        string startDate;\r\n        string endDate;\r\n    }\r\n\r\n    mapping(address => Treatment[]) private treatments;\r\n\r\n    function addTreatment(uint _id, string memory _name, string memory _description, string memory _startDate, string memory _endDate) public {\r\n        Treatment memory newTreatment = Treatment(_id, _name, _description, _startDate, _endDate);\r\n        treatments[msg.sender].push(newTreatment);\r\n    }\r\n\r\n    function getTreatments() public view returns (Treatment[] memory) {\r\n        return treatments[msg.sender];\r\n    }\r\n}\r\n",
  "sourcePath": "D:\\MyWork\\hackwork\\mytest\\contracts\\treatments.sol",
  "compiler": {
    "name": "solc",
    "version": "0.8.19+commit.7dd6d404.Emscripten.clang"
  },
  "schemaVersion": "3.4.13",
  "updatedAt": "2023-03-18T16:27:57.225Z",
  "devdoc": {
    "kind": "dev",
    "methods": {},
    "version": 1
  },
  "userdoc": {
    "kind": "user",
    "methods": {},
    "version": 1
  }
}